{
  "address": "0x9e6a74c369D73ECE6815b0458DcD10F57Ff5C31C",
  "abi": [
    {
      "inputs": [
        {
          "internalType": "bytes32",
          "name": "_merkleRoot",
          "type": "bytes32"
        }
      ],
      "stateMutability": "nonpayable",
      "type": "constructor"
    },
    {
      "anonymous": false,
      "inputs": [
        {
          "indexed": true,
          "internalType": "address",
          "name": "owner",
          "type": "address"
        },
        {
          "indexed": true,
          "internalType": "address",
          "name": "spender",
          "type": "address"
        },
        {
          "indexed": false,
          "internalType": "uint256",
          "name": "value",
          "type": "uint256"
        }
      ],
      "name": "Approval",
      "type": "event"
    },
    {
      "anonymous": false,
      "inputs": [
        {
          "indexed": true,
          "internalType": "address",
          "name": "from",
          "type": "address"
        },
        {
          "indexed": true,
          "internalType": "address",
          "name": "to",
          "type": "address"
        },
        {
          "indexed": false,
          "internalType": "uint256",
          "name": "value",
          "type": "uint256"
        }
      ],
      "name": "Transfer",
      "type": "event"
    },
    {
      "inputs": [
        {
          "internalType": "address",
          "name": "owner",
          "type": "address"
        },
        {
          "internalType": "address",
          "name": "spender",
          "type": "address"
        }
      ],
      "name": "allowance",
      "outputs": [
        {
          "internalType": "uint256",
          "name": "",
          "type": "uint256"
        }
      ],
      "stateMutability": "view",
      "type": "function"
    },
    {
      "inputs": [
        {
          "internalType": "address",
          "name": "spender",
          "type": "address"
        },
        {
          "internalType": "uint256",
          "name": "amount",
          "type": "uint256"
        }
      ],
      "name": "approve",
      "outputs": [
        {
          "internalType": "bool",
          "name": "",
          "type": "bool"
        }
      ],
      "stateMutability": "nonpayable",
      "type": "function"
    },
    {
      "inputs": [
        {
          "internalType": "address",
          "name": "account",
          "type": "address"
        }
      ],
      "name": "balanceOf",
      "outputs": [
        {
          "internalType": "uint256",
          "name": "",
          "type": "uint256"
        }
      ],
      "stateMutability": "view",
      "type": "function"
    },
    {
      "inputs": [
        {
          "internalType": "bytes32",
          "name": "leaf",
          "type": "bytes32"
        },
        {
          "internalType": "bytes32[]",
          "name": "proof",
          "type": "bytes32[]"
        }
      ],
      "name": "claim",
      "outputs": [],
      "stateMutability": "nonpayable",
      "type": "function"
    },
    {
      "inputs": [
        {
          "internalType": "address",
          "name": "",
          "type": "address"
        }
      ],
      "name": "claimed",
      "outputs": [
        {
          "internalType": "bool",
          "name": "",
          "type": "bool"
        }
      ],
      "stateMutability": "view",
      "type": "function"
    },
    {
      "inputs": [],
      "name": "decimals",
      "outputs": [
        {
          "internalType": "uint8",
          "name": "",
          "type": "uint8"
        }
      ],
      "stateMutability": "view",
      "type": "function"
    },
    {
      "inputs": [
        {
          "internalType": "address",
          "name": "spender",
          "type": "address"
        },
        {
          "internalType": "uint256",
          "name": "subtractedValue",
          "type": "uint256"
        }
      ],
      "name": "decreaseAllowance",
      "outputs": [
        {
          "internalType": "bool",
          "name": "",
          "type": "bool"
        }
      ],
      "stateMutability": "nonpayable",
      "type": "function"
    },
    {
      "inputs": [
        {
          "internalType": "address",
          "name": "spender",
          "type": "address"
        },
        {
          "internalType": "uint256",
          "name": "addedValue",
          "type": "uint256"
        }
      ],
      "name": "increaseAllowance",
      "outputs": [
        {
          "internalType": "bool",
          "name": "",
          "type": "bool"
        }
      ],
      "stateMutability": "nonpayable",
      "type": "function"
    },
    {
      "inputs": [],
      "name": "merkleRoot",
      "outputs": [
        {
          "internalType": "bytes32",
          "name": "",
          "type": "bytes32"
        }
      ],
      "stateMutability": "view",
      "type": "function"
    },
    {
      "inputs": [],
      "name": "name",
      "outputs": [
        {
          "internalType": "string",
          "name": "",
          "type": "string"
        }
      ],
      "stateMutability": "view",
      "type": "function"
    },
    {
      "inputs": [],
      "name": "symbol",
      "outputs": [
        {
          "internalType": "string",
          "name": "",
          "type": "string"
        }
      ],
      "stateMutability": "view",
      "type": "function"
    },
    {
      "inputs": [],
      "name": "totalSupply",
      "outputs": [
        {
          "internalType": "uint256",
          "name": "",
          "type": "uint256"
        }
      ],
      "stateMutability": "view",
      "type": "function"
    },
    {
      "inputs": [
        {
          "internalType": "address",
          "name": "recipient",
          "type": "address"
        },
        {
          "internalType": "uint256",
          "name": "amount",
          "type": "uint256"
        }
      ],
      "name": "transfer",
      "outputs": [
        {
          "internalType": "bool",
          "name": "",
          "type": "bool"
        }
      ],
      "stateMutability": "nonpayable",
      "type": "function"
    },
    {
      "inputs": [
        {
          "internalType": "address",
          "name": "sender",
          "type": "address"
        },
        {
          "internalType": "address",
          "name": "recipient",
          "type": "address"
        },
        {
          "internalType": "uint256",
          "name": "amount",
          "type": "uint256"
        }
      ],
      "name": "transferFrom",
      "outputs": [
        {
          "internalType": "bool",
          "name": "",
          "type": "bool"
        }
      ],
      "stateMutability": "nonpayable",
      "type": "function"
    },
    {
      "inputs": [
        {
          "internalType": "bytes32",
          "name": "root",
          "type": "bytes32"
        },
        {
          "internalType": "bytes32",
          "name": "leaf",
          "type": "bytes32"
        },
        {
          "internalType": "bytes32[]",
          "name": "proof",
          "type": "bytes32[]"
        }
      ],
      "name": "verify",
      "outputs": [
        {
          "internalType": "bool",
          "name": "",
          "type": "bool"
        }
      ],
      "stateMutability": "pure",
      "type": "function"
    }
  ],
  "transactionHash": "0xefc6cadd0a7801e27615585275dff2201dad20323eeb07ff6aa1ab0122bf9107",
  "args": [
    "0x035140a1603a6248c5707efbd5cf9ba5093f385a0d5bd06c63065b0c757a76ed"
  ],
  "solcInputHash": "858c40a711cc2d4be7d189b8275ca00a",
  "bytecode": "0x60806040523480156200001157600080fd5b5060405162000f5b38038062000f5b83398101604081905262000034916200024e565b604080518082018252600881526727b4171723b2b2bd60c11b60208083019182528351808501909452600784526627a416a3a2a2ad60c91b9084015281519192916200008391600391620001a8565b50805162000099906004906020840190620001a8565b505050620000b73068120d4da7b0bd140000620000c060201b60201c565b600555620002cc565b6001600160a01b0382166200011b5760405162461bcd60e51b815260206004820152601f60248201527f45524332303a206d696e7420746f20746865207a65726f206164647265737300604482015260640160405180910390fd5b80600260008282546200012f919062000268565b90915550506001600160a01b038216600090815260208190526040812080548392906200015e90849062000268565b90915550506040518181526001600160a01b038316906000907fddf252ad1be2c89b69c2b068fc378daa952ba7f163c4a11628f55a4df523b3ef9060200160405180910390a35050565b828054620001b6906200028f565b90600052602060002090601f016020900481019282620001da576000855562000225565b82601f10620001f557805160ff191683800117855562000225565b8280016001018555821562000225579182015b828111156200022557825182559160200191906001019062000208565b506200023392915062000237565b5090565b5b8082111562000233576000815560010162000238565b6000602082840312156200026157600080fd5b5051919050565b600082198211156200028a57634e487b7160e01b600052601160045260246000fd5b500190565b600181811c90821680620002a457607f821691505b60208210811415620002c657634e487b7160e01b600052602260045260246000fd5b50919050565b610c7f80620002dc6000396000f3fe608060405234801561001057600080fd5b50600436106100f55760003560e01c80633950935111610097578063a9059cbb11610066578063a9059cbb146101e2578063c884ef83146101f5578063dd62ed3e14610218578063f5c05eb71461025157600080fd5b8063395093511461018b57806370a082311461019e57806395d89b41146101c7578063a457c2d7146101cf57600080fd5b806323b872dd116100d357806323b872dd1461014d5780632eb4a7ab14610160578063313ce567146101695780633423e5481461017857600080fd5b806306fdde03146100fa578063095ea7b31461011857806318160ddd1461013b575b600080fd5b610102610266565b60405161010f9190610924565b60405180910390f35b61012b610126366004610995565b6102f8565b604051901515815260200161010f565b6002545b60405190815260200161010f565b61012b61015b3660046109bf565b61030e565b61013f60055481565b6040516012815260200161010f565b61012b610186366004610aac565b6103c4565b61012b610199366004610995565b610474565b61013f6101ac366004610afc565b6001600160a01b031660009081526020819052604090205490565b6101026104ab565b61012b6101dd366004610995565b6104ba565b61012b6101f0366004610995565b610555565b61012b610203366004610afc565b60066020526000908152604090205460ff1681565b61013f610226366004610b1e565b6001600160a01b03918216600090815260016020908152604080832093909416825291909152205490565b61026461025f366004610b51565b610562565b005b60606003805461027590610b98565b80601f01602080910402602001604051908101604052809291908181526020018280546102a190610b98565b80156102ee5780601f106102c3576101008083540402835291602001916102ee565b820191906000526020600020905b8154815290600101906020018083116102d157829003601f168201915b5050505050905090565b6000610305338484610628565b50600192915050565b600061031b84848461074c565b6001600160a01b0384166000908152600160209081526040808320338452909152902054828110156103a55760405162461bcd60e51b815260206004820152602860248201527f45524332303a207472616e7366657220616d6f756e74206578636565647320616044820152676c6c6f77616e636560c01b60648201526084015b60405180910390fd5b6103b985336103b48685610be9565b610628565b506001949350505050565b600082815b83518110156104695760008482815181106103e6576103e6610c00565b6020026020010151905080831015610429576040805160208101859052908101829052606001604051602081830303815290604052805190602001209250610456565b60408051602081018390529081018490526060016040516020818303038152906040528051906020012092505b508061046181610c16565b9150506103c9565b509093149392505050565b3360008181526001602090815260408083206001600160a01b038716845290915281205490916103059185906103b4908690610c31565b60606004805461027590610b98565b3360009081526001602090815260408083206001600160a01b03861684529091528120548281101561053c5760405162461bcd60e51b815260206004820152602560248201527f45524332303a2064656372656173656420616c6c6f77616e63652062656c6f77604482015264207a65726f60d81b606482015260840161039c565b61054b33856103b48685610be9565b5060019392505050565b600061030533848461074c565b3360009081526006602052604090205460ff16156105ae5760405162461bcd60e51b81526020600482015260096024820152682327a92124a22222a760b91b604482015260640161039c565b6105bb60055483836103c4565b6105f75760405162461bcd60e51b815260206004820152600d60248201526c24a72b20a624a22fa82927a7a360991b604482015260640161039c565b336000818152600660205260409020805460ff1916600117905561062390670de0b6b3a7640000610555565b505050565b6001600160a01b03831661068a5760405162461bcd60e51b8152602060048201526024808201527f45524332303a20617070726f76652066726f6d20746865207a65726f206164646044820152637265737360e01b606482015260840161039c565b6001600160a01b0382166106eb5760405162461bcd60e51b815260206004820152602260248201527f45524332303a20617070726f766520746f20746865207a65726f206164647265604482015261737360f01b606482015260840161039c565b6001600160a01b0383811660008181526001602090815260408083209487168084529482529182902085905590518481527f8c5be1e5ebec7d5bd14f71427d1e84f3dd0314c0f7b2291e5b200ac8c7c3b925910160405180910390a3505050565b6001600160a01b0383166107b05760405162461bcd60e51b815260206004820152602560248201527f45524332303a207472616e736665722066726f6d20746865207a65726f206164604482015264647265737360d81b606482015260840161039c565b6001600160a01b0382166108125760405162461bcd60e51b815260206004820152602360248201527f45524332303a207472616e7366657220746f20746865207a65726f206164647260448201526265737360e81b606482015260840161039c565b6001600160a01b0383166000908152602081905260409020548181101561088a5760405162461bcd60e51b815260206004820152602660248201527f45524332303a207472616e7366657220616d6f756e7420657863656564732062604482015265616c616e636560d01b606482015260840161039c565b6108948282610be9565b6001600160a01b0380861660009081526020819052604080822093909355908516815290812080548492906108ca908490610c31565b92505081905550826001600160a01b0316846001600160a01b03167fddf252ad1be2c89b69c2b068fc378daa952ba7f163c4a11628f55a4df523b3ef8460405161091691815260200190565b60405180910390a350505050565b600060208083528351808285015260005b8181101561095157858101830151858201604001528201610935565b81811115610963576000604083870101525b50601f01601f1916929092016040019392505050565b80356001600160a01b038116811461099057600080fd5b919050565b600080604083850312156109a857600080fd5b6109b183610979565b946020939093013593505050565b6000806000606084860312156109d457600080fd5b6109dd84610979565b92506109eb60208501610979565b9150604084013590509250925092565b634e487b7160e01b600052604160045260246000fd5b600082601f830112610a2257600080fd5b8135602067ffffffffffffffff80831115610a3f57610a3f6109fb565b8260051b604051601f19603f83011681018181108482111715610a6457610a646109fb565b604052938452858101830193838101925087851115610a8257600080fd5b83870191505b84821015610aa157813583529183019190830190610a88565b979650505050505050565b600080600060608486031215610ac157600080fd5b8335925060208401359150604084013567ffffffffffffffff811115610ae657600080fd5b610af286828701610a11565b9150509250925092565b600060208284031215610b0e57600080fd5b610b1782610979565b9392505050565b60008060408385031215610b3157600080fd5b610b3a83610979565b9150610b4860208401610979565b90509250929050565b60008060408385031215610b6457600080fd5b82359150602083013567ffffffffffffffff811115610b8257600080fd5b610b8e85828601610a11565b9150509250929050565b600181811c90821680610bac57607f821691505b60208210811415610bcd57634e487b7160e01b600052602260045260246000fd5b50919050565b634e487b7160e01b600052601160045260246000fd5b600082821015610bfb57610bfb610bd3565b500390565b634e487b7160e01b600052603260045260246000fd5b6000600019821415610c2a57610c2a610bd3565b5060010190565b60008219821115610c4457610c44610bd3565b50019056fea26469706673582212204af5336de7ac28b60848b67e1dc4ce4f2f181632f6da8a855829853cb888ba8064736f6c63430008090033",
  "devdoc": {
    "kind": "dev",
    "methods": {
      "allowance(address,address)": {
        "details": "See {IERC20-allowance}."
      },
      "approve(address,uint256)": {
        "details": "See {IERC20-approve}. Requirements: - `spender` cannot be the zero address."
      },
      "balanceOf(address)": {
        "details": "See {IERC20-balanceOf}."
      },
      "decimals()": {
        "details": "Returns the number of decimals used to get its user representation. For example, if `decimals` equals `2`, a balance of `505` tokens should be displayed to a user as `5,05` (`505 / 10 ** 2`). Tokens usually opt for a value of 18, imitating the relationship between Ether and Wei. This is the value {ERC20} uses, unless this function is overridden; NOTE: This information is only used for _display_ purposes: it in no way affects any of the arithmetic of the contract, including {IERC20-balanceOf} and {IERC20-transfer}."
      },
      "decreaseAllowance(address,uint256)": {
        "details": "Atomically decreases the allowance granted to `spender` by the caller. This is an alternative to {approve} that can be used as a mitigation for problems described in {IERC20-approve}. Emits an {Approval} event indicating the updated allowance. Requirements: - `spender` cannot be the zero address. - `spender` must have allowance for the caller of at least `subtractedValue`."
      },
      "increaseAllowance(address,uint256)": {
        "details": "Atomically increases the allowance granted to `spender` by the caller. This is an alternative to {approve} that can be used as a mitigation for problems described in {IERC20-approve}. Emits an {Approval} event indicating the updated allowance. Requirements: - `spender` cannot be the zero address."
      },
      "name()": {
        "details": "Returns the name of the token."
      },
      "symbol()": {
        "details": "Returns the symbol of the token, usually a shorter version of the name."
      },
      "totalSupply()": {
        "details": "See {IERC20-totalSupply}."
      },
      "transfer(address,uint256)": {
        "details": "See {IERC20-transfer}. Requirements: - `recipient` cannot be the zero address. - the caller must have a balance of at least `amount`."
      },
      "transferFrom(address,address,uint256)": {
        "details": "See {IERC20-transferFrom}. Emits an {Approval} event indicating the updated allowance. This is not required by the EIP. See the note at the beginning of {ERC20}. Requirements: - `sender` and `recipient` cannot be the zero address. - `sender` must have a balance of at least `amount`. - the caller must have allowance for ``sender``'s tokens of at least `amount`."
      }
    },
    "version": 1
  },
  "userdoc": {
    "kind": "user",
    "methods": {},
    "version": 1
  },
  "storageLayout": {
    "storage": [
      {
        "astId": 15,
        "contract": "contracts/OhGeez.sol:OhGeez",
        "label": "_balances",
        "offset": 0,
        "slot": "0",
        "type": "t_mapping(t_address,t_uint256)"
      },
      {
        "astId": 21,
        "contract": "contracts/OhGeez.sol:OhGeez",
        "label": "_allowances",
        "offset": 0,
        "slot": "1",
        "type": "t_mapping(t_address,t_mapping(t_address,t_uint256))"
      },
      {
        "astId": 23,
        "contract": "contracts/OhGeez.sol:OhGeez",
        "label": "_totalSupply",
        "offset": 0,
        "slot": "2",
        "type": "t_uint256"
      },
      {
        "astId": 25,
        "contract": "contracts/OhGeez.sol:OhGeez",
        "label": "_name",
        "offset": 0,
        "slot": "3",
        "type": "t_string_storage"
      },
      {
        "astId": 27,
        "contract": "contracts/OhGeez.sol:OhGeez",
        "label": "_symbol",
        "offset": 0,
        "slot": "4",
        "type": "t_string_storage"
      },
      {
        "astId": 711,
        "contract": "contracts/OhGeez.sol:OhGeez",
        "label": "merkleRoot",
        "offset": 0,
        "slot": "5",
        "type": "t_bytes32"
      },
      {
        "astId": 715,
        "contract": "contracts/OhGeez.sol:OhGeez",
        "label": "claimed",
        "offset": 0,
        "slot": "6",
        "type": "t_mapping(t_address,t_bool)"
      }
    ],
    "types": {
      "t_address": {
        "encoding": "inplace",
        "label": "address",
        "numberOfBytes": "20"
      },
      "t_bool": {
        "encoding": "inplace",
        "label": "bool",
        "numberOfBytes": "1"
      },
      "t_bytes32": {
        "encoding": "inplace",
        "label": "bytes32",
        "numberOfBytes": "32"
      },
      "t_mapping(t_address,t_bool)": {
        "encoding": "mapping",
        "key": "t_address",
        "label": "mapping(address => bool)",
        "numberOfBytes": "32",
        "value": "t_bool"
      },
      "t_mapping(t_address,t_mapping(t_address,t_uint256))": {
        "encoding": "mapping",
        "key": "t_address",
        "label": "mapping(address => mapping(address => uint256))",
        "numberOfBytes": "32",
        "value": "t_mapping(t_address,t_uint256)"
      },
      "t_mapping(t_address,t_uint256)": {
        "encoding": "mapping",
        "key": "t_address",
        "label": "mapping(address => uint256)",
        "numberOfBytes": "32",
        "value": "t_uint256"
      },
      "t_string_storage": {
        "encoding": "bytes",
        "label": "string",
        "numberOfBytes": "32"
      },
      "t_uint256": {
        "encoding": "inplace",
        "label": "uint256",
        "numberOfBytes": "32"
      }
    }
  }
}